:1004C00050617373776F72643A004F4B200045524E
:0604D00052002020200074
:0405370002180000A6
:10018C001205007BFF7A0479C07D017F01120462A5
:10019C00750C04AB1BAA1A7D017F021204A312007A
:1001AC00038F1CE51C60E9D3940A5041C3E51994F4
:1001BC0004E51894005028AE1AAF1B7C007D0A127F
:1001CC0002918E1A8F1BE51C75F00A84E5F0251B35
:1001DC00F51BE4351AF51A0519E5197002051875A1
:1001EC000C04AB1BAA1A7D017F021204A3E51C644C
:1001FC000B7036E51BB4790DE51AB409087BFF7A50
:10020C000479CA80067BFF7A0479CE7D0E7F0112B9
:10021C000462E4F51AF51BF518F519750C04AB1B03
:10022C00AA1A7D017F021204A3E51C640C60030270
:10023C00019CF51AF51BF518F5197BFF7A0479D298
:10024C007D0E7F01120462750C04AB1BAA1A7D0192
:08025C007F021204A302019CC1
:1004EC00EF4E600F7D027CEFDCFEDDFCEF1F70F049
:0304FC001E80ED72
:0104FF0022DA
:06051400C2A58F80D2A7F2
:08051A007F027EEFDEFEDFFC34
:0105220022B6
:0A052300C2A6120514C2A702051AB1
:10048500CFCDCFCECCCE1202A37C007D0A1202A323
:04049500ED2430FF23
:0A049900D2A6120514C2A702051A2C
:1004D600AE07BE0104ED148006BE0209ED243F44BA
:0604E60080FF1205232235
:100500007F381205237F0C1205237F061205237FF7
:0405100001020523BC
:0A052D00AC031204D6AF04020499D7
:060462008B088A09890ADB
:100468001204D6E4FDAB08AA09A90A8D8275830097
:0C047800120264FF60061204990D80E976
:010484002255
:0C042F007F0AEA24FFFDE434FFFC7E009D
:08043B008E0D8F0E8C0F8D1049
:100443007F017E00E4FBEBC39510E50F6480F87435
:0E0453008098500AAC0DAD0E1202910B80E89D
:010461002278
:0404A3008A0A8B0B2B
:1004A7001204D6AA0CEAD39400400D12042FAC0A0A
:0804B700AD0B1204851A80ED63
:0104BF00221A
:100384001204D6C3EA64809480400B7F2B12049934
:100394008A168B17800E7F2D120499C3E49BF517E0
:1003A400E49AF516AA15EAD39400400D12042FAC72
:0903B40016AD171204851A80ED44
:0103BD00221D
:0403BE008A1F8B20E7
:1003C2001204D6AA21EAD3940040297F10120431E4
:1003D200AC1FAD20CFCDCFCECCCE1202A3EF540FA7
:1003E200FEC3940AEE5004243080022437FF120424
:0403F200991A80D103
:0103F60022E4
:0403F7008A248B25A4
:1003FB001204D6AA26EAD394004028EA24FFFDE48F
:10040B0034FFFC7F027E0012043BAC24AD25CFCD24
:10041B00CFCECCCE1202A3EF54012430FF1204999D
:03042B001A80D262
:01042E0022AB
:10000300E4F5087590FFC2932097137F14FE120442
:10001300EC3097FD7F147E001204EC7508012096E6
:10002300147F147E001204EC3096FD7F147E0012C0
:1000330004EC7508052095147F147E001204EC303F
:1000430095FD7F147E001204EC7508092094147F3B
:10005300147E001204EC3094FD7F147E001204EC35
:1000630075080D7590FFC2922097147F147E0012BD
:1000730004EC3097FD7F147E001204EC7508022017
:1000830096147F147E001204EC3096FD7F147E00DC
:100093001204EC7508062095147F147E001204ECFC
:1000A3003095FD7F147E001204EC75080A20941429
:1000B3007F147E001204EC3094FD7F147E00120442
:1000C300EC75080E7590FFC2912097147F147E0083
:1000D3001204EC3097FD7F147E001204EC750803C4
:1000E3002096147F147E001204EC3096FD7F147E5C
:1000F300001204EC7508072095147F147E00120487
:10010300EC3095FD7F147E001204EC75080B2094EF
:10011300147F147E001204EC3094FD7F147E0012D1
:1001230004EC75080F7590FFC2902097147F147E1E
:10013300001204EC3097FD7F147E001204EC750866
:10014300042096147F147E001204EC3096FD7F1475
:100153007E001204EC7508082095147F147E0012AB
:1001630004EC3095FD7F147E001204EC75080C201E
:1001730094147F147E001204EC3094FD7F147E00EF
:080183001204EC750810AF082E
:01018B002251
:030000000202F801
:0C02F800787FE4F6D8FD75812602033FF4
:10026400BB010CE58229F582E5833AF583E022504F
:1002740006E92582F8E622BBFE06E92582F8E22299
:0D028400E58229F582E5833AF583E49322B3
:10029100EF8DF0A4A8F0CF8CF0A428CE8DF0A42E81
:0202A100FE223B
:1002A300BC000BBE0029EF8DF084FFADF022E4CC3F
:1002B300F875F008EF2FFFEE33FEEC33FCEE9DEC08
:1002C300984005FCEE9DFE0FD5F0E9E4CEFD22ED4E
:1002D300F8F5F0EE8420D21CFEADF075F008EF2F98
:1002E300FFED33FD4007985006D5F0F222C398FD89
:0502F3000FD5F0EA2226
:1003040002018CE493A3F8E493A34003F68001F282
:1003140008DFF48029E493A3F85407240CC8C333FA
:10032400C4540F4420C8834004F456800146F6DFC9
:10033400E4800B0102040810204080900537E47E1D
:10034400019360BCA3FF543F30E509541FFEE493BE
:10035400A360010ECF54C025E060A840B8E493A385
:10036400FAE493A3F8E493A3C8C582C8CAC583CAB0
:10037400F0A3C8C582C8CAC583CADFE9DEE780BE68
:01053B0000BF
:00000001FF
